:020000040800F2
:100000007808002049010008E909000855060008A1
:10001000E5090008C90200089B160008000000005E
:10002000000000000000000000000000710E000849
:100030006104000800000000DD0A0008211000082B
:10004000630100086301000863010008B90D00089E
:1000500063010008630100086B04000863010008E5
:1000600063010008630100086301000863010008E0
:1000700063010008630100086301000863010008D0
:1000800063010008630100086301000863010008C0
:1000900063010008630100086301000863010008B0
:1000A00063010008630100086301000863010008A0
:1000B0006301000863010008630100086301000890
:1000C0006301000863010008630100086301000880
:1000D00063010008630100086301000809140008B7
:1000E0006D04000863010008630100086301000853
:1000F0006301000863010008630100086301000850
:10010000630100086301000863010008630100083F
:10011000630100086301000863010008630100082F
:10012000630100086301000863010008630100081F
:10013000DFF810D000F092F8004800473D1A0008A0
:10014000AFF3008078080020064880470648004743
:10015000FEE7FEE7FEE7FEE7FEE7FEE7FEE7FEE777
:10016000FEE7FEE7CD10000831010008D2B201E041
:1001700000F8012B491EFBD270470022F6E710B5AC
:1001800013460A4604461946FFF7F0FF204610BD05
:1001900096230022114600F033B820F00040C10D34
:1001A000C0F3160040F400007F2901DA00207047F8
:1001B000962903DCC1F19601C84070479639884002
:1001C000704730B50B46014600202022012409E08B
:1001D00021FA02F59D4205D303FA02F5491B04FA00
:1001E00002F52844151EA2F10102F1DC30BD002900
:1001F000A8BF7047401C490008BF20F001007047AD
:1002000010B4B0FA80FC00FA0CF050EA010404BF0C
:1002100010BC704749B1CCF1200421FA04F411FA62
:100220000CF118BF012121430843A3EB0C01CB1DA6
:100230004FEA00614FEA102042BF002010BC704717
:1002400000EBC35010440029A4BF10BC7047401CF1
:10025000490008BF20F0010010BC7047064C074D54
:1002600006E0E06840F0010394E807009847103486
:10027000AC42F6D3FFF760FF0824000828240008EA
:1002800010B5012000F04CFC002000F049FC10BD2E
:1002900008B50146002000900348009000980844EB
:1002A00000900098008808BD006C004008B500224E
:1002B0000092044A0092009A02440092009A11604F
:1002C00008BD0000006C004000BFFEE708B501213A
:1002D000402000F015FC0121042000F011FC4FF437
:1002E0008050ADF8000010208DF8030003208DF839
:1002F000020069460B4800F0BAF84FF48050ADF8A0
:10030000000010208DF8030003208DF802006946DC
:10031000054800F0ACF84FF48051024800F085F930
:1003200008BD00000018014000080140FEB5044669
:10033000002001900290002500264FF48050ADF877
:10034000000010208DF8030003208DF8020069469C
:10035000424800F08CF84FF48051404800F063F9B7
:10036000162001F0C1FA4FF480513C4800F05DF9CD
:100370001E2001F0E1FA04208DF803006946374899
:1003800000F075F800BF4FF48051344800F042F996
:100390000128F8D000BF4FF48051304800F03AF9FE
:1003A0000028F8D000BF4FF480512C4800F032F9FB
:1003B0000128F8D000252CE0002626E000BF4FF4ED
:1003C0008051264800F026F90028F8D01E2001F0C0
:1003D000B3FA01A8405D4006000E01A948554FF44C
:1003E00080511E4800F016F968B101A8405D40F048
:1003F000010001A9485500BF4FF48051174800F093
:1004000009F90028F8D1701CC6B2082ED6DB681C8A
:10041000C5B2052DD0DB9DF804009DF805100844F9
:100420009DF8061008449DF8071008449DF8081030
:10043000884210D19DF8040020709DF8050060707E
:100440009DF80600A0709DF80700E0709DF8080078
:1004500020710120FEBD0020FCE7000000180140D3
:10046000704710B500F0DEFD10BD704770472DE9F4
:10047000F04102460025002600200023002400272A
:1004800091F803C00CF00F0591F803C00CF0100CAC
:10049000BCF1000F03D091F802C04CEA050591F8B9
:1004A00000C0BCF1000F31D0146800202BE04FF0E9
:1004B000010C0CFA00F3B1F800C00CEA03069E42EE
:1004C00020D183004FF00F0C0CFA03F7BC4305FA60
:1004D00003FC4CEA040491F803C0BCF1280F06D1D8
:1004E0004FF0010C0CFA00FCC2F814C00AE091F8BD
:1004F00003C0BCF1480F05D14FF0010C0CFA00FC11
:10050000C2F810C0401C0828D1D31460B1F800C054
:10051000BCF1FF0F34DD546800202EE000F1080C20
:100520004FF0010808FA0CF3B1F800C00CEA03061A
:100530009E4221D183004FF00F0C0CFA03F7BC430D
:1005400005FA03FC4CEA040491F803C0BCF1280F3F
:1005500005D100F1080C08FA0CF8C2F8148091F8E3
:1005600003C0BCF1480F07D100F1080C4FF001089F
:1005700008FA0CF8C2F81080401C0828CED354604A
:10058000BDE8F081F0B50A460023002400210025D3
:1005900000F00046B6F1004F02D11D4EF16901E0B6
:1005A0001B4E7168C0F3034583B200F44016B6F5E4
:1005B000401F08D121F07061154E766826F07066F4
:1005C000134F7E6012E000F48016B6F5801F06D14E
:1005D000032606FA05F4A14341F0706106E0460DDA
:1005E000360103FA06F6B14341F0706122B1460DBF
:1005F000360103FA06F6314300F00046B6F1004F2B
:1006000002D1034EF16101E0014E7160F0BD0000C6
:10061000000001400246002093680B400BB101200E
:1006200000E00020704741617047016170470000A1
:1006300000200AE0002105E00022054B03EBC01377
:100640005A54491C8029F7DB401C0828F2DB70470C
:100650005800002000BFFEE708B50121082000F087
:100660004FFA0121402000F04BFA0121202000F038
:1006700047FA04208DF803004002ADF800006946F7
:100680000C48FFF7F4FE10208DF80300C002ADF80F
:10069000000003208DF8020069460748FFF7E7FED7
:1006A00004208DF80300ADF8000069460348FFF709
:1006B000DEFE08BD000C014000180140001401409E
:1006C00070B502460024002500230020958A138B74
:1006D0001B0445EA030626F07F4404EA01068E4225
:1006E00001D1012000E0002070BD21B1028842F05C
:1006F0000102028004E002884FF6FE731A40028075
:10070000704721B1028842F48072028004E00288BE
:100710004FF6FF631A400280704721B1028842F40D
:100720000072028004E002884FF6FF531A400280F4
:10073000704700002DE9F04385B004460D460026C1
:10074000B1460427DFF8CC80A6884FF6C07006407B
:10075000684600F0F5F9DDF808802F48B8FBF0F0A6
:100760001FFA80F946EA0906A68020884FF6FE7136
:100770000840208000262949286888420CD828682B
:100780004000B8FBF0F087B2042F00DA04273E43A4
:1007900009F10100208427E0E8884BF6FF718842C8
:1007A00006D1286800EB4000B8FBF0F087B209E002
:1007B000286800EBC00101EB0010B8FBF0F087B235
:1007C00047F48047C7F30B0008B947F0010747F427
:1007D000004006434FF4967009FB00F04FF47A7125
:1007E00090FBF1F0401C2084A683208840F001009B
:1007F000208026884FF6F5300640A888698908438E
:1008000006432680A88929890843208105B0BDE8D0
:10081000F083000000127A0040420F00A086010021
:1008200012B141F0010102E04FF6FE73194001825E
:10083000704701827047000070B504460D460121E3
:100840001948FFF75EFF00BF18491748FFF738FF48
:100850000028F9D0002278211348FFF7E1FF00BFFC
:1008600013491148FFF72CFF0028F9D029460E48FC
:10087000FFF7DFFF00BF0E49891C0B48FFF720FF81
:100880000028F8D021460848FFF7D3FF00BF0849E9
:10089000891C0548FFF714FF0028F8D00121024801
:1008A000FFF73BFF70BD0000005400400100030053
:1008B0008200070008B50121082000F021F94FF45B
:1008C0000070ADF8000048208DF8030003208DF87B
:1008D000020069460148FFF7CAFD08BD000C01404F
:1008E00010B51148007898B14FF400710F48FFF728
:1008F00091FE68B90A2000F0F7FF00200A4908704D
:100900004FF400710948FFF785FE50B9012010BD72
:100910004FF400710548FFF77DFE012801D102491F
:1009200008700020F3E7000050000020000C014098
:1009300008B50121042000F0E3F80121082000F0AF
:10094000DFF80121202000F0DBF84020ADF80000A6
:1009500028208DF8030069461848FFF788FD01201C
:10096000ADF8000000208DF8030069461448FFF739
:100970007EFD8020ADF8000010208DF803000320DC
:100980008DF8020069460F48FFF771FD4FF42860AB
:10099000ADF8000010208DF8030003208DF8020050
:1009A00069460948FFF763FD80210648FFF73BFED3
:1009B0004FF428610448FFF736FE08BD00080140E7
:1009C000000C0140001401400018014010B5402106
:1009D0000348FFF71FFE08B1012010BD0020FCE70F
:1009E0000008014000BFFEE7704708B503208DF8FE
:1009F000000000208DF8010001208DF802008DF824
:100A00000300684600F002F808BD000070B5002140
:100A100000230F22C47804B3154C246804F4E06466
:100A2000C4F5E064210AC1F10403CA40447804FA21
:100A300003F184781440214309010E4C0678A15536
:100A4000047804F01F050124AC4005786D11AD0059
:100A500005F1E025C5F8004109E0047804F01F0520
:100A60000124AC40044D0678761145F8264070BD4F
:100A70000CED00E000E400E080E100E010B501F0E2
:100A8000C3F901F0DBF901F0FBF901F0D9FA10BD6F
:100A900070B505460C467F2C01DB7E2000E0204629
:100AA0000446082D01DB032000E02846054645F0FA
:100AB000B0000021FFF7C0FE04F00F000021FFF797
:100AC000BBFE102141EA14100021FFF7B5FE70BDF6
:100AD000014908627047000000000E4270470000A4
:100AE00029B1064AD2690243044BDA6104E0034AA1
:100AF000D2698243014BDA61704700000010024066
:100B000029B1064A92690243044B9A6104E0034A00
:100B100092698243014B9A617047000000100240C5
:100B20000149086070470000400442420348406A9F
:100B300040F0807001494862704700000010024098
:100B400030B500210022002400232D4D6D6805F0F2
:100B50000C0121B1042905D0082923D105E0294D34
:100B6000056022E0274D05601FE0254D6D6805F406
:100B70007012234D6D6805F48034022505EB924216
:100B80001CB9214D554305600BE01D4D6D6805F402
:100B900000351DB11C4D5543056002E0194D55430C
:100BA000056002E0174D056000BF00BF144D6D6881
:100BB00005F0F0010909154D6B5C0568DD404560E5
:100BC0000F4D6D6805F4E061090A104D6B5C4568D6
:100BD000DD4085600A4D6D6805F46051C90A0B4D12
:100BE0006B5C4568DD40C560054D6D6805F44041AE
:100BF000890B074D6B5CC568B5FBF3F5056130BD2E
:100C00000010024000127A0000093D00140000208C
:100C10002400002010B501460022002300204A11C4
:100C2000012A02D1094C236806E0022A02D1074CAE
:100C3000236A01E0054C636A01F01F02012494401D
:100C40001C400CB1012000E0002010BD001002404B
:100C500000210B4A11700A4A203A82F8201001281C
:100C600002D0042808D103E00121054A117004E0F4
:100C70000521034A117000E000BF00BF704700006B
:100C80002010024001490860704700003C044242C5
:100C90000249096A0143014A11627047001002408B
:100CA00010B50446FFF7A1FE0420FFF7F1FA4AF25F
:100CB000A551884208D0204600F0F8FA4AF2A55122
:100CC0000420FFF7F3FA16E001214FF0C050FFF7C0
:100CD00007FF0120FFF7FCFE7B20FFF79BFF10B909
:100CE0007A20FFF797FF00F0B1F80121032000F010
:100CF00075F800F0A1F8FFF719FF10BD0249098847
:100D00008143014A118070470428004010B5012139
:100D10004FF0C050FFF7E4FE0120FFF7D9FEFFF7C8
:100D2000AFFA0120FFF794FF00BF4120FFF772FFE9
:100D30000028FAD04FF48070FFF7AAFF0120FFF7D8
:100D4000A1FF00F083F800F077F80121084600F0D9
:100D500045F800F071F847F6FF7000F05DF800F01C
:100D60006BF810BD0348008840F01000014908806E
:100D70007047000004280040034800884FF6EF71D8
:100D800008400149088070470428004000210348BA
:100D90000188001F008841EA004070471C2800407D
:100DA00001460020034A12880A400AB1012000E0EF
:100DB000002070470428004010B50120FFF7F0FF25
:100DC00048B10120FFF79AFF03480068401C024920
:100DD000086000F031F810BD2C00002029B1064A4F
:100DE00012880243044B1A8004E0034A12888243AB
:100DF000014B1A80704700000028004000B50246F1
:100E0000FFF7B0FF100C03490880091D0A80FFF7A7
:100E1000B3FF00BD1828004000B50246FFF7A2FF4F
:100E2000C2F3034003490880091D0A80FFF7A4FFAD
:100E300000BD00000828004000BF0348008800F003
:100E400020000028F9D07047042800400748008897
:100E50004FF6F77108400549088000BF0348008835
:100E600000F008000028F9D0704700000428004076
:100E70007047000000B589B001210920FFF740FE4E
:100E800001210220FFF72CFE0120ADF820001820E0
:100E90008DF8230003208DF8220008A91648FFF7DB
:100EA000E6FA44F61F60ADF818004720ADF81400CC
:100EB0000020ADF81A00ADF8160005A90F4800F0A3
:100EC000A3F96020ADF804000120ADF806004FF44E
:100ED000FA70ADF80A000020ADF80C0001A907482F
:100EE00000F040F90121054800F020F901210348F4
:100EF00000F028F909B000BD000C014000040040DA
:100F000070B504464FF4FA606043B42190FBF1F0F1
:100F100000F5FA7085B25A2C00DD5A24002C00DA54
:100F200000242946024800F06DF90248047070BDA3
:100F3000000400402800002010B500F001F810BDAA
:100F40000CB50020019000903348006840F48030D8
:100F50003149086000BF3048006800F4003000905C
:100F60000198401C0190009818B90198B0F5A06F45
:100F7000F1D12948006800F4003010B10120009040
:100F800001E0002000900098012843D12348006828
:100F900040F01000214908600846006820F0030076
:100FA00008600846006840F0020008601A4840687F
:100FB000194948600846406848600846406840F45F
:100FC000806048600846406820F47C10486008460D
:100FD000406840F4E81048600846006840F08070BF
:100FE000086000BF0C48006800F000700028F9D0CD
:100FF0000948406820F003000749486008464068F7
:1010000040F00200486000BF0348406800F00C0058
:101010000828F9D10CBD0000001002400020024059
:101020007047000030B50021002000220023234C2F
:10103000646804F00C0424B1042C06D0082C24D1DC
:1010400007E01F4C1F4D2C6023E01D4C1D4D2C60F4
:101050001FE01A4C6468C4F30042184C646804F43E
:101060007010022404EB9040112800D1102022B906
:10107000154C4443134D2C6006E00923104CB4FB7F
:10108000F3F444430F4D2C6003E00D4C0D4D2C60E8
:1010900000BF00BF094C646804F0F0010909082989
:1010A00004D2084C2468074D2C6005E0CC1F054D88
:1010B0002D68E540034C256030BD00000010024063
:1010C00000127A000000002000093D0010B513480E
:1010D000006840F001001149086008464068104966
:1010E00008400E494860084600680E4908400B4910
:1010F00008600846006820F48020086008464068C0
:1011000020F4FE0048604FF41F008860FFF714FFD2
:101110004FF000600449086010BD0000001002405C
:101120000000FFF8FFFFF6FE08ED00E021B10288A5
:1011300042F00102028004E002884FF6FE731A407A
:101140000280704731B1B0F8442042F40042A0F868
:10115000442005E0B0F84420C2F30E02A0F8442079
:101160007047000070B5002400220023058C4FF664
:10117000FF6635400584028C8388848B4FF68F751B
:101180002C404FF6FC752C400D882C434FF6FF5534
:101190002A400D894FF6FF7606EA05252A434D8839
:1011A00006EA05252A43154DA84202D0144DA8424F
:1011B0001DD14FF2FF752A404D894FF6FF7606EAA2
:1011C00005252A434FF6FF352A408D8806EA052576
:1011D0002A434EF6FF752B404DF6FF752B408D8947
:1011E00006EA05152B43CD8906EA05152B438380B6
:1011F0008483CD888587028470BD0000002C014067
:101200000034014081877047002202881D4B9842BC
:101210000ED01D4B98420BD0B0F1804F08D01B4B25
:10122000984205D01A4B984202D01A4B984204D1EA
:101230004FF68F731A404B881A43174B984207D0CA
:10124000164B984204D04FF6FF431A40CB881A43FE
:1012500002808B8883850B8803850A4B98420BD0CC
:10126000094B984208D00E4B984205D00D4B98423E
:1012700002D00D4B984201D10B7A03860123838261
:1012800070470000002C0140003401400004004081
:1012900000080040000C0040001000400014004016
:1012A00000400140004401400048014070B5044640
:1012B000FFF72CFDFFF7C0FD204600F06FFD00F5A5
:1012C000E1452846FFF79AFDFFF7B6FD70BD000027
:1012D00010B588B01C2101A8FEF74FFFFFF756FD9F
:1012E000044601A9204600F025FF039882B202239C
:1012F0002C21002000F056FE41A23A21002000F0EF
:101300008FFE012000F0E5FA02980A280DDA012389
:1013100000224021104600F045FE029882B20123CF
:101320004621002000F03EFE06E0029882B2022331
:101330004021002000F036FE31A24D21002000F0B7
:101340006FFE01980A280DDA01230022542110466D
:1013500000F028FE019882B201235B21002000F0FA
:1013600021FE06E0019882B202235421002000F001
:1013700019FE069882B204232021012000F012FEFB
:10138000012000F0A6FA1FA23921012000F048FE3A
:1013900005980A280DDA012300224021184600F0A2
:1013A00001FE059882B201234721184600F0FAFD9C
:1013B00006E0059882B202234021012000F0F2FDF0
:1013C00010A24D21012000F02BFE04980A280DDA0E
:1013D000012300225421184600F0E4FD049882B253
:1013E00001235B21184600F0DDFD06E0049882B27F
:1013F00002235421012000F0D5FD08B010BD0000EB
:101400003A0000002F00000010B540F225510548B9
:1014100000F07FF820B1034800F036F90249087067
:1014200010BD0000004800403D00002000B587B01E
:1014300001211120FFF764FB01218804FFF750FB15
:1014400001212448FFF79EF84FF48060ADF81800A2
:1014500018208DF81B0003208DF81A0006A91E48DD
:10146000FFF705F84FF40060ADF8180004208DF880
:101470001B0006A91848FEF7FAFF4FF41650029019
:101480000020ADF80C00ADF80E00ADF81000ADF87E
:1014900014000C20ADF8120002A9104800F088F8E2
:1014A000012240F225510D4800F05DF827208DF80B
:1014B000040001208DF805008DF806008DF8070066
:1014C00001A8FFF7A3FA0121044800F009F807B0CA
:1014D00000BD000010001400001001400048004052
:1014E00021B1828942F40052828104E082894DF662
:1014F000FF731A408281704702460020B1F5007FD9
:1015000000D100BF13880B400BB1012000E0002088
:10151000704770B50246002400230025002040F6E5
:101520006A16B14200D100BFC1F3421501F01F039A
:10153000012606FA03F3012D02D19689334006E015
:10154000022D02D1168A334001E0968A33400C12F4
:10155000012606FA04F41688344013B10CB10120B8
:1015600000E0002070BDF0B50346002400260025F1
:10157000002040F66A17B94200D100BF1846C1F3F7
:10158000421401F01F06012707FA06F5012C01D1CC
:101590000C3004E0022C01D1103000E014301AB1FC
:1015A00007682F43076002E00768AF430760F0BD9C
:1015B0002DE9F04786B005460E460024A24600BF3E
:1015C000A1460027B08900B100BF2F462C8A4CF6F7
:1015D000FF700440F08804432C82AC894EF6F3106F
:1015E0000440B08831890843718908430443AC81C1
:1015F000AC8A4FF6FF400440B0890443AC8201A896
:10160000FFF79EFA1F48874202D1DDF810A001E0E3
:10161000DDF80CA0A88900F4004040B10AEBCA0034
:1016200000EB0A1031684900B0FBF1F807E00AEB63
:10163000CA0000EB0A1031688900B0FBF1F86420A1
:10164000B8FBF0F004012009642101FB1089A8898E
:1016500000F4004040B1322000EBC900B0FBF1F0D3
:1016600000F00700044308E0322000EB0910642179
:10167000B0FBF1F000F00F0004432C8106B0BDE890
:10168000F08700000038014001468888C0F3080058
:101690007047C1F308028280704700BFFEE7000078
:1016A0000FB4054B10B503A9044A029800F018F8CE
:1016B00010BC5DF814FB00008119000854000020E4
:1016C00002E008C8121F08C1002AFAD1704770470B
:1016D000002001E001C1121F002AFBD17047000069
:1016E0002DE9FF4F89B09B460446002506E02528DA
:1016F0000BD05A460B999047641C6D1C207800282B
:10170000F5D10DB02846BDE8F08F0027B84601227C
:10171000474900E0074314F8013F203B02FA03F079
:101720000842F7D120782E2819D114F8010F47F07C
:1017300004072A280ED06FF02F022078A0F1300184
:1017400009290CD808EB880102EB410100EB0108E4
:10175000641CF2E70A98641C50F8048B0A90207805
:101760000028CED0642808D0692806D075281ED05D
:101770005A460B9990476D1C58E00A994FF00A0998
:1017800001C90A91002802DA40422D2102E0390500
:1017900004D52B218DF82010012103E0F90704D096
:1017A0002021F7E78A4608AE0DE00021FAE70A9902
:1017B0004FF00A0901C90A91F7E74946FEF701FD12
:1017C000303106F8011D0028F7D1ADEB060000F11D
:1017D0002009780701D44FF00108C84502DDA8EBC5
:1017E000090000E000208046002706E008A85A46CD
:1017F000C05D0B9990476D1C7F1C5745F6DB04E0DC
:1018000030205A460B9990476D1CB8F10001A8F1A1
:101810000108F5DC05E016F8010B5A460B999047D4
:101820006D1CB9F10001A9F10109F4DC641C65E744
:101830000928010010B504210448FEF7EBFE18B991
:10184000034800680349086010BD0000001401400F
:10185000480000204C00002030B505460C46022C04
:1018600007D1284600F0D0F808B11D2030BD1C205B
:10187000FCE7042C05D0062C03D0092C01D00B2C3E
:1018800001D11E20F2E71F20F0E7F0B50446002545
:1018900040F2B2770AE0384600F0B6F810B14FF4E3
:1018A000B77001E040F26D1005447F1C6069B842DA
:1018B000F1DC012605E031466069FFF7CDFF054404
:1018C000761C2069B042F6DCE068401E05442846DC
:1018D000F0BD002105E0002200E0521C7B2AFCDB69
:1018E000491C8142F7DB70471DE0124909684FF43B
:1018F0007A72B1FBF2F1491E4FF0E02251610021F2
:1019000091610121116100BF4FF0E021096901F4EB
:1019100080310029F8D04FF0E021096921F0010160
:101920004FF0E0221161011EA0F1010290B2DCD162
:1019300070470000000000200F4A12680F4BB2FBF6
:10194000F3F202FB00F14A1E4FF0E0235A6100223D
:101950009A6101221A6100BF4FF0E022126902F47D
:101960008032002AF8D04FF0E022126922F0010202
:101970004FF0E0231A6170470000002040420F0042
:1019800070B504460D46E1B20548FFF782FE00BF80
:1019900080210348FFF7B0FD0028F9D0204670BD34
:1019A0000048004070B5002500BF002404E000F0AE
:1019B0006BFB0544601CC4B20A2CF8DB0A20B5FBA3
:1019C000F0F00E490860084600680D490968401AA1
:1019D0004FF4B671B0FBF1F00A49884201D90020FA
:1019E00070BD0648006806490968401A4FF4B67190
:1019F000B0FBF1F63046FEF7CBFBF1E748000020E4
:101A00004C00002040420F0001460A46C81701EB77
:101A100090708010A1EB800028B9642091FBF0F356
:101A200000FB131030B94FF4C87091FBF0F300FBCA
:101A3000131008B9012070470020FCE71CB50020F6
:101A400000900190A44988700870FEF70AFDFFF726
:101A500015F8FEF76DFFFEF739FCFEF7FDFDFFF709
:101A600009FAFEF727FF0020FFF74AFAFFF7DEFC2E
:101A700040F2E97099494861052008611C20C8605E
:101A80000D20886034204860002008600846FFF779
:101A900007F993A20021022000F0C2FA92A20021CD
:101AA000032000F0BDFA91A24621032000F0B8FA0D
:101AB0008FA25521022000F0B3FA0BE18D48007887
:101AC00031280DD18C480068401C8B4908600846BD
:101AD00001688AA0FFF7E4FD00208649087034E021
:101AE0008448007832280DD183480068401E82491E
:101AF00008600846016881A0FFF7D2FD00207D49FB
:101B0000087022E07B48007833280DD180480068B7
:101B1000401C7F490860084601687EA0FFF7C0FDB1
:101B200000207449087010E07248007834280CD105
:101B300077480068401E764908600846016875A02D
:101B4000FFF7AEFD00206B490870BDF80010481C7F
:101B500080B2ADF80000B1F5FA6F44DD0020ADF8B9
:101B600000005D48FEF7E2FB5B4881786EA0FFF75E
:101B700097FD5948017870A0FFF792FD564880788C
:101B80005D490968884204DB534881786EA0FFF7FD
:101B900087FD514800785E490968884204DB4E4859
:101BA00001786FA0FFF77CFD4B48807852490968A7
:101BB000884201DB012000E0002047490978544AAF
:101BC0001268914201DB012100E00021084328B1A5
:101BD0004FF480516848FEF728FD04E04FF480512F
:101BE0006548FEF720FDBDF80210481C80B2ADF834
:101BF0000200C82906DD0020ADF80200FFF7D2FE82
:101C00005E490860BDF80410481C80B2ADF80400BD
:101C100064291FDDFFF75CFB0020ADF80400574886
:101C20000068FEF7BAFA84B2042322463221022069
:101C300000F0B8F92848827802231021032000F030
:101C4000B1F92548027802235621032000F0AAF9B1
:101C500000F054FAFFF7EEFDFEF7B8FE90B94848E1
:101C6000006878B901204649086046A0FFF718FDD2
:101C700080214748FEF7D9FC4FF428614548FEF71C
:101C8000D4FC12E0FEF7A2FE78B13D4800680128BE
:101C90000BD100203A49086080213D48FEF7C3FC83
:101CA0004FF428613B48FEF7BEFCFEF719FE012801
:101CB0000DD1394800785A2803D05A20FFF720F96F
:101CC00005E03548007810B10020FFF719F9012030
:101CD000FFF70AFEF2E6000038000020580400205A
:101CE0005745494748543A00543A0000483A0000E2
:101CF000670000003D00002044000020B5B1C7B0DF
:101D0000CEC2B6C8B7A7D6B5A3BA25640D0A0000DF
:101D100040000020B5B1C7B0CAAAB6C8B7A7D6B5AB
:101D2000A3BA25640D0A0000B5B1C7B0CEC2B6C8CB
:101D30003A25750D0A000000B5B1C7B0CAAAB6C8E9
:101D40003A25750D0A000000CEC2B6C8B9FDB8DF4D
:101D5000A3ACB5B1C7B0CEC2B6C83A25750D0A005E
:101D6000CAAAB6C8B9FDB8DFA3ACB5B1C7B0CAAA94
:101D7000B6C83A25750D0A0000080140340000205D
:101D800030000020D3D0BBF0D4D60D0A00000000F4
:101D900000140140001801402800002070B50446DE
:101DA0002046FFF772FD0646094806FB00F5A068CD
:101DB000C0EB4011C1EB002005EB00156068C0EBE3
:101DC000001005EB800520680544284670BD000022
:101DD0008051010010B50246012002E000FB02F331
:101DE00098B20B1EA1F10104A1B2F7D110BD0021E0
:101DF00007E0002201E0531C9AB27B2AFBDB4B1C5C
:101E000099B28142F5DB704708B501214805FEF71C
:101E100067FE01210820FEF773FE1C208DF80300E9
:101E2000C020ADF8000003208DF80200694602488A
:101E3000FEF71DFB08BD0000000C01401FB500208F
:101E4000ADF804000C4800904BF6FF70ADF80600AA
:101E5000AA20ADF808004FF48040ADF80C00012036
:101E6000ADF80A0069460548FEF764FC0121034805
:101E7000FEF73BFC1FBD0000E0930400005400404F
:101E800010B56420FFF7B3FF0021AE20FEF7D4FCAD
:101E90000021D520FEF7D0FC00218020FEF7CCFCED
:101EA0000021A820FEF7C8FC00211F20FEF7C4FC7B
:101EB0000021D320FEF7C0FC00210846FEF7BCFC41
:101EC00000214020FEF7B8FC00218D20FEF7B4FC75
:101ED00000211420FEF7B0FC00212020FEF7ACFC0E
:101EE00000210846FEF7A8FC0021A120FEF7A4FC73
:101EF0000021C820FEF7A0FC0021DA20FEF79CFCA0
:101F000000210220FEF798FC00218120FEF794FCBE
:101F10000021CF20FEF790FC0021D920FEF78CFC99
:101F20000021F120FEF788FC0021DB20FEF784FC75
:101F300000214020FEF780FC0021A420FEF77CFC5D
:101F40000021A620FEF778FC0021AF20FEF774FCEC
:101F5000FEF76EFB0021AF20FEF76EFC10BD000007
:101F60002DE9F04105460E461746002411E0A7F181
:101F7000200000EB4000094901EB4000005D0849EA
:101F800001EBC511321988540120FFF730FF601CA6
:101F9000C4B2062CEBDBBDE8F0810000CC210008C8
:101FA000580000202DE9F05F81460F4690461C4600
:101FB00000252CE0601B401E81B20A20FFF70AFFBB
:101FC00098FBF0FA601B401E81B20A20FFF702FF67
:101FD00098FBF0F100FB11801FFA80F8002611E059
:101FE0000AF1100B0120FFF702FF0BEB4B000A492F
:101FF00001EB4000805D094901EBC911BA19885411
:10200000701C86B2062EEBDBBF1D681C85B2A54294
:10201000D0DBBDE8F09F0000CC2100085800002074
:1020200070B506460D46144606E02278294630462D
:10203000FFF796FF641CAD1D20780028F5D170BD18
:1020400070B540F6B830FFF7D2FE002419E004F175
:10205000B001C8B20021FEF7EFFB00210846FEF7F1
:10206000EBFB00211020FEF7E7FB002505E04021F7
:102070000020FEF7E1FB681CC5B2802DF7DB601C79
:10208000C4B2082CE3DD70BD70B500244FF40041EC
:102090001848FEF7C8FA00BF4FF400611648FEF773
:1020A000B9FA0028F8D1002514E04FF40041114896
:1020B000FEF7BBFA64004FF400610F48FEF7AAFA7E
:1020C00008B144F001044FF400410A48FEF7ABFAAE
:1020D000681CC5B2182DE8DB4FF400410548FEF737
:1020E000A4FA84F400044FF400410248FEF79BFA7E
:1020F000204670BD00180140000C014070B5002161
:102100000846FEF7C5FC00240EE0002509E008495A
:1021100001EBC411485D4021FEF78EFB00BF00BFFC
:102120006D1C802DF3DB641C042CEEDB70BD000005
:102130005800002070B505460C46A5F5E1453C2049
:10214000B5FBF0F100FB115020603C20B5FBF0F531
:10215000B5FBF0F100FB115060603C20B5FBF0F5E1
:102160001820B5FBF0F100FB1150A0601820B5FB62
:10217000F0F540F2B270606111E06069FFF744FC75
:1021800010B14FF4B77001E040F26D100646B54251
:1021900000D205E0AD1B6069401C606100BFECE748
:1021A00000BF012020610CE0D4E90410FFF754FBCC
:1021B0000646B54200D205E0AD1B2069401C2061F7
:1021C00000BFF1E700BF681CE06070BD00000000C8
:1021D00000000000002F00000000070007000014AE
:1021E0007F147F1400242A7F2A12002313086462BC
:1021F00000364955225000000007000000001C2254
:102200004100000041221C000014083E0814000890
:10221000083E0808000000A0600000080808080840
:10222000000060600000002010080402003E5149D8
:10223000453E0000427F4000004261514946002176
:1022400041454B31001814127F1000274545453990
:10225000003C4A49493000017109050300364949EB
:10226000493600064949291E0000363600000000A4
:1022700056360000000814224100001414141414EF
:10228000000041221408000201510906003E495590
:10229000592E007C1211127C007F49494936003EBC
:1022A00041414122007F4141221C007F494949416F
:1022B000007F09090901003E4149497A007F080869
:1022C000087F0000417F4100002040413F01007F26
:1022D00008142241007F40404040007F020C027FF2
:1022E000007F0408107F003E4141413E007F090904
:1022F0000906003E4151215E007F0919294600462A
:10230000494949310001017F0101003F4040403F00
:10231000001F2040201F003F4038403F006314084A
:102320001463000708700807006151494543000025
:102330007F414100000204081020000041417F005D
:10234000000402010204004040404040000001023D
:102350000400002054545478007F48444438003826
:102360004444442000384444487F003854545418AE
:1023700000087E0901020018A4A4A47C007F0804C0
:1023800004780000447D4000004080847D00007F90
:10239000102844000000417F4000007C04180478AD
:1023A000007C0804047800384444443800FC2424A9
:1023B00024180018242418FC007C08040408004891
:1023C0005454542000043F444020003C4040207CB2
:1023D000001C2040201C003C4030403C00442810A1
:1023E0002844001CA0A0A07C004464544C4400007D
:1023F000087F41000000007F00000000417F0800CE
:10240000000804081008000028240008000000202C
:1024100058000000C0160008802400085800002062
:1024200020080000D016000800A24A0400000000A6
:102430000000000001020304060708090000000074
:102440000102030401020304060708090204060846
:10245000000000000000000000000000000000007C
:1024600000000000000000004B0000001900000008
:10247000000000000000000001000000000000005B
:0400000508000131BD
:00000001FF
